:020000040800F2
:100000006008002015020008210A00080707000800
:100010001D0A0008410500080B120008000000003E
:10002000000000000000000000000000710E000849
:100030004505000800000000790D0008850F000844
:100040002F0200082F0200082F0200082F020008CC
:100050002F0200082F0200082F0200082F020008BC
:100060002F0200082F0200082F0200082F020008AC
:100070002F0200082F0200082F0200082F0200089C
:100080002F0200082F0200082F0200082F0200088C
:100090002F0200082F0200082F0200082F0200087C
:1000A0002F0200082F0200082F0200082F0200086C
:1000B0002F0200082F0200082F0200082F0200085C
:1000C0002F0200082F0200082F0200082F0200084C
:1000D0002F020008E90F00082F0200082F02000875
:1000E0002F0200082F0200082F0200082F0200082C
:1000F0002F0200082F0200082F0200082F0200081C
:100100002F0200082F0200082F0200082F0200080B
:100110002F0200082F0200082F0200082F020008FB
:100120002F0200082F0200082F0200082F020008EB
:1001300000F002F800F05FF80AA090E8000C82449A
:100140008344AAF10107DA4501D100F054F8AFF277
:10015000090EBAE80F0013F0010F18BFFB1A43F0A5
:10016000010318476C1400008C1400000A444FF07F
:10017000000C10F8013B13F0070408BF10F8014B06
:100180001D1108BF10F8015B641E05D010F8016B4B
:10019000641E01F8016BF9D113F0080F1EBF10F8AF
:1001A000014BAD1C0C1B09D16D1E58BF01F801CBD2
:1001B000FAD505E014F8016B01F8016B6D1EF9D555
:1001C0009142D6D37047000000230024002500266A
:1001D000103A28BF78C1FBD8520728BF30C148BFAA
:1001E0000B607047732900F0B680002070471FB580
:1001F0001FBD10B510BD00F0E1F81146FFF7F7FF85
:1002000001F084F800F0FFF803B4FFF7F2FF03BC3D
:1002100000F0FDFF0948804709480047FEE7FEE778
:10022000FEE7FEE7FEE7FEE7FEE7FEE7FEE7FEE7A6
:1002300004480549054A064B70470000890F00082D
:1002400031010008600200206008002060040020E6
:1002500060040020704700000FB4044910B503AAE1
:10026000029800F07DF810BC5DF814FB1800002027
:100270002DE9F0410E460446002020622046E16848
:10028000884730B3252805D0D4E901219047206A5A
:10029000401CF2E7E168204600278847050018D097
:1002A000A5F14100192802D820354FF400673246E5
:1002B000294620462760FFF795FF40B1012804D06A
:1002C000F61D26F007060836D8E7361DD6E728467D
:1002D000DAE7206ABDE8F08170B50C460546012AD0
:1002E00005D02878800600D5EA69002302E00123C2
:1002F00005E05B1C934202D2E05C0028F9D1A869BA
:10030000E618C01AA861286A184428622846AFF384
:10031000008004E0D5E9012114F8010B9047B442B4
:10032000F8D32846AFF3008070BD70477047704720
:10033000704710B5436913B1AFF3008001E0FFF7D8
:10034000CBFF012010BD127800F124010A700022B9
:100350004A700122EDE711684FF0FF32E9E7000033
:10036000074B70B50D467B4400F011F80446284653
:1003700000F020F810B14FF0FF3070BD204670BD86
:10038000870F000001694A1C02610878704700B5B8
:100390008FB0CDE901310021059105497944CDE9BE
:1003A000031011466846FFF763FF0FB000BD000061
:1003B000E5FFFFFF007B00F080007047754600F00E
:1003C00029F8AE4605006946534620F007008546E9
:1003D00018B020B5FFF72CFFBDE820404FF0000615
:1003E0004FF000074FF000084FF0000B21F007011D
:1003F000AC46ACE8C009ACE8C009ACE8C009ACE860
:10040000C0098D4670470446AFF300802046FFF7D1
:10041000FBFE000000487047FC01002010B5FF20E3
:1004200000F028F80446552C01D1002010BD5521BC
:10043000FF2000F05DF8FF2000F01CF80446552C6A
:1004400001D10020F2E70120F0E710B500F086F9B5
:1004500010BD70B506460C46154608E03046721CC5
:1004600096B200F007F804F8010B681E85B2002D63
:10047000F4D170BD70B50446002600F023FA25467D
:10048000E11704EB11610912A02202EB4101C8B28D
:1004900000F0DEF900F062FAE11704EB11610912D5
:1004A000A4EB0121C8B200F0D3F900F057FA00F034
:1004B00009FAA12000F0CCF900F050FA002000F079
:1004C0008FF9064600F024FA304670BD70B5054637
:1004D0000C46164606E02178284600F009F8681C0C
:1004E00085B2641C3000A6F101018EB2F3D170BD5B
:1004F00070B504460E4600F0E5F92546E11704EB19
:1005000011610912A02202EB4101C8B200F0A0F96A
:1005100000F024FAE11704EB11610912A4EB0121A8
:10052000C8B200F095F900F019FA304600F090F9E1
:1005300000F014FA00F0ECF90A2000F08DFE70BD16
:1005400000BFFEE770472DE9F04102460025002676
:10055000002000230024002791F803C00CF00F05B1
:1005600091F803C00CF0100CBCF1000F03D091F80F
:1005700002C04CEA050591F800C0BCF1000F31D073
:10058000146800202BE04FF0010C0CFA00F3B1F8D6
:1005900000C00CEA03069E4220D183004FF00F0CEE
:1005A0000CFA03F7BC4305FA03FC4CEA040491F887
:1005B00003C0BCF1280F06D14FF0010C0CFA00FC6F
:1005C000C2F814C00AE091F803C0BCF1480F05D18D
:1005D0004FF0010C0CFA00FCC2F810C0401C0828B7
:1005E000D1D31460B1F800C0BCF1FF0F34DD546802
:1005F00000202EE000F1080C4FF0010808FA0CF37F
:10060000B1F800C00CEA03069E4221D183004FF0EE
:100610000F0C0CFA03F7BC4305FA03FC4CEA040484
:1006200091F803C0BCF1280F05D100F1080C08FABD
:100630000CF8C2F8148091F803C0BCF1480F07D140
:1006400000F1080C4FF0010808FA0CF8C2F810800D
:10065000401C0828CED35460BDE8F081F0B50A46AE
:10066000002300240021002500F00046B6F1004FD1
:1006700002D11D4EF16901E01B4E7168C0F30345C4
:1006800083B200F44016B6F5401F08D121F0706126
:10069000154E766826F07066134F7E6012E000F407
:1006A0008016B6F5801F06D1032606FA05F4A1438D
:1006B00041F0706106E0460D360103FA06F6B143DB
:1006C00041F0706122B1460D360103FA06F631435E
:1006D00000F00046B6F1004F02D1034EF16101E097
:1006E000014E7160F0BD0000000001400246002094
:1006F00093680B400BB1012000E00020704741617E
:1007000070470161704700BFFEE7000010B5002090
:100710000F4908600F48006820F070400D490860DC
:100720000846006840F04050086000200A49C1F8BF
:100730009C01022000F0B6FD01200549086002205E
:1007400000F0B0FD00200449C1F8980110BD000080
:1007500098812142000C01400080214208B501210E
:10076000082000F00BFBC020ADF8000010208DF831
:10077000030003208DF8020069460448FFF7E3FEFA
:10078000C0210248FFF7BDFF08BD0000000C01407A
:1007900010B500200F4908600F48006820F0704035
:1007A0000D4908600846006840F04050086001208C
:1007B0000A49C1F89C01022000F074FD012005499E
:1007C0000860022000F06EFD00200449C1F8980185
:1007D00010BD000098812142000C014000802142A0
:1007E00070B5054600241748006820F07040154990
:1007F00008600846006840F000400860002616E0E7
:10080000002011490860022000F04CFD01200F4932
:10081000C1F898016006040E0B487C38006808B1E6
:10082000601CC4B2012000F03DFD701CC6B2082E51
:10083000E6DB15B9FFF7ACFF01E0FFF767FF2046E5
:1008400070BD0000000C01409881214200802142CF
:1008500070B504461848006820F0704016490860DA
:100860000846006840F040500860002013490860C6
:1008700000251EE0E00920B101201049091D086093
:1008800003E000200D49091D08606006040E0220E7
:1008900000F008FD012009490860022000F002FD77
:1008A00000200749C1F89801022000F0FBFC681CF9
:1008B000C5B2082DDEDB70BD000C014098812142DD
:1008C0000080214210B50F48006820F070400D49AB
:1008D00008600846006840F04050086001200A495E
:1008E00008600A49C1F89801042000F0DBFC0020F0
:1008F00005490860042000F0D5FC00200349C1F838
:10090000980110BD000C01409C81214200802142D1
:1009100010B50F48006820F070400D490860084687
:10092000006840F04050086000200A4908600A4909
:10093000C1F89C01042000F0B5FC012005490860C5
:100940000549C1F89C01042000F0ACFC10BD00007A
:10095000000C0140988121420080214210B5002402
:100960001448006820F0704012490860084600688A
:1009700040F00040086001200F49086000F092FC40
:1009800001200E49C1F8980100F08CFC07E0601CC2
:10099000C4B2FA2C03DDFFF7BBFF012010BD0648EF
:1009A000803800680028F2D10349091F086000BFA1
:1009B000F4E70000000C01409C81214200802142AC
:1009C00008B50121402000F0D9F94FF4F050ADF8FE
:1009D000000048208DF8030069460248FFF7B3FD88
:1009E00008BD00000018014008B50121402000F0BA
:1009F000C5F90F20ADF8000010208DF8030003208A
:100A00008DF8020069460448FFF79DFD0F2102485A
:100A1000FFF777FE08BD00000018014000BFFEE7A9
:100A20007047000070B5002100230F22C47804B382
:100A3000154C246804F4E064C4F5E064210AC1F1B3
:100A40000403CA40447804FA03F184781440214333
:100A500009010E4C0678A155047804F01F05012405
:100A6000AC4005786D11AD0005F1E025C5F80041F9
:100A700009E0047804F01F050124AC40044D067819
:100A8000761145F8264070BD0CED00E000E400E072
:100A900080E100E002490143024A11607047000012
:100AA0000000FA050CED00E070B5002419E004F137
:100AB000B001C8B2002100F025F90021084600F07D
:100AC00021F90021102000F01DF9002505E0012189
:100AD000002000F017F9681CC5B2802DF7DB601C00
:100AE000C4B2082CE3DB70BD08B50121282000F05A
:100AF00045F90121092000F041F901215848FFF78B
:100B0000ADFDE020ADF8000010208DF803000320BB
:100B10008DF8020069465348FFF715FDE021514862
:100B2000FFF7EFFD3820ADF8000010208DF803002E
:100B300003208DF8020069464B48FFF704FD282189
:100B40004948FFF7DEFD80214648FFF7DAFD6420C3
:100B500000F082FB80214348FFF7D1FD642000F0C4
:100B60007BFB80213F48FFF7CCFD0021AE2000F049
:100B7000C9F80021084600F0C5F80021102000F057
:100B8000C1F80021402000F0BDF80021812000F0D4
:100B9000B9F80021CF2000F0B5F80021A12000F025
:100BA000B1F80021C82000F0ADF80021A62000F027
:100BB000A9F80021A82000F0A5F800213F2000F0AE
:100BC000A1F80021D32000F09DF80021084600F094
:100BD00099F80021D52000F095F80021802000F040
:100BE00091F80021D92000F08DF80021F12000F0CB
:100BF00089F80021DA2000F085F80021122000F0A9
:100C000081F80021DB2000F07DF80021402000F079
:100C100079F80021202000F075F80021022000F072
:100C200071F800218D2000F06DF80021142000F0F3
:100C300069F80021A42000F065F80021A62000F04A
:100C400061F80021AF2000F05DF80021AF2000F036
:100C500059F8FFF729FF0021084600F007F808BD02
:100C60000002300000140140000C014070B5044641
:100C70000D4605F1B001C8B2002100F043F8102183
:100C800041EA1410002100F03DF804F00F0141F09A
:100C90000100002100F036F870BD00002DE9F041A0
:100CA00080460E461546002731464046FFF7DEFFD8
:100CB00000240AE0124A02EB8511085D012100F0D0
:100CC00021F8781CC7B2601CC4B2102CF2DB701C77
:100CD000C1B24046FFF7CAFF00240CE06900491C7E
:100CE000074A02EB4111085D012100F00BF8781C66
:100CF000C7B2601CC4B2102CF0DBBDE8F08100006C
:100D00003200002070B504460E4626B14021184836
:100D1000FFF7F7FC03E040211548FFF7F0FC202126
:100D20001348FFF7ECFC002517E008211148FFF7F6
:100D3000E6FC04F0800020B120210E48FFF7E1FC22
:100D400003E020210B48FFF7DAFC08210948FFF7F0
:100D5000D8FC6006040E681CC5B2082DE5DB202116
:100D60000348FFF7CEFC40210148FFF7CAFC70BDE5
:100D700000140140000C01407047000029B1064AF0
:100D800092690243044B9A6104E0034A92698243E8
:100D9000014B9A61704700000010024030B50021FD
:100DA0000022002400232D4D6D6805F00C0121B1B7
:100DB000042905D0082923D105E0294D056022E04A
:100DC000274D05601FE0254D6D6805F47012234D19
:100DD0006D6805F48034022505EB92421CB9214D63
:100DE000554305600BE01D4D6D6805F400351DB1E0
:100DF0001C4D5543056002E0194D5543056002E066
:100E0000174D056000BF00BF144D6D6805F0F0017F
:100E10000909154D6B5C0568DD4045600F4D6D6837
:100E200005F4E061090A104D6B5C4568DD408560A2
:100E30000A4D6D6805F46051C90A0B4D6B5C45683D
:100E4000DD40C560054D6D6805F44041890B074DD7
:100E50006B5CC568B5FBF3F5056130BD0010024061
:100E600000127A0000093D001E0000202E00002024
:100E7000704710B500F002F810BD00000CB500205E
:100E8000019000903348006840F480303149086098
:100E900000BF3048006800F4003000900198401C0A
:100EA0000190009818B90198B0F5A06FF1D12948C8
:100EB000006800F4003010B10120009001E0002033
:100EC00000900098012843D12348006840F01000AA
:100ED000214908600846006820F0030008600846C1
:100EE000006840F0020008601A48406819494860EC
:100EF0000846406848600846406840F480604860A2
:100F00000846406820F47C1048600846406840F479
:100F1000E81048600846006840F08070086000BF34
:100F20000C48006800F000700028F9D009484068BB
:100F300020F00300074948600846406840F002007E
:100F4000486000BF0348406800F00C000828F9D151
:100F50000CBD00000010024000200240042808D10F
:100F60004FF0E021096941F004014FF0E0221161E6
:100F700007E04FF0E021096921F004014FF0E02281
:100F8000116170477047000010B51348006840F0C9
:100F900001001149086008464068104908400E49A0
:100FA0004860084600680E4908400B49086008463A
:100FB000006820F4802008600846406820F4FE00A5
:100FC00048604FF41F008860FFF753FF4FF0006048
:100FD0000449086010BD0000001002400000FFF846
:100FE000FFFFF6FE08ED00E010B540F225511D4868
:100FF00000F04AF810B31B4800F002F9C4B21A48D6
:10100000008800F40040C8B91748008800F4804008
:1010100060B10A2C03D000201349088020E0124858
:10102000008840F400401049088019E00D2C06D1DA
:101030000D48008840F480400B49088010E00A48C1
:101040000088C0F30D0009490C5407480088401C73
:101050000549088008460088C72801DD002008806F
:1010600010BD0000003801401C00002034010020A9
:1010700021B1828942F40052828104E082894DF6D6
:10108000FF731A408281704770B502460024002326
:101090000025002040F66A16B14200D100BFC1F31E
:1010A000421501F01F03012606FA03F3012D02D1B8
:1010B0009689334006E0022D02D1168A334001E0C2
:1010C000968A33400C12012606FA04F4168834403E
:1010D00013B10CB1012000E0002070BDF0B5034653
:1010E000002400260025002040F66A17B94200D1EE
:1010F00000BF1846C1F3421401F01F06012707FA8A
:1011000006F5012C01D10C3004E0022C01D1103085
:1011100000E014301AB107682F43076002E0076847
:10112000AF430760F0BD00002DE9F04786B00546EB
:101130000E460024A24600BFA1460027B08900B198
:1011400000BF2F462C8A4CF6FF700440F088044301
:101150002C82AC894EF6F3100440B08831890843E4
:10116000718908430443AC81AC8A4FF6FF400440C8
:10117000B0890443AC8201A8FFF710FE1F488742E4
:1011800002D1DDF810A001E0DDF80CA0A88900F480
:10119000004040B10AEBCA0000EB0A103168490078
:1011A000B0FBF1F807E00AEBCA0000EB0A10316867
:1011B0008900B0FBF1F86420B8FBF0F004012009CD
:1011C000642101FB1089A88900F4004040B132205D
:1011D00000EBC900B0FBF1F000F00700044308E0A9
:1011E000322000EB09106421B0FBF1F000F00F0099
:1011F00004432C8106B0BDE8F087000000380140B0
:1012000001468888C0F30800704700BFFEE700BFB2
:101210007047000010B56FF00400FFF79FFE0A480A
:1012200000680A49B0FBF1F00949087008460078E7
:1012300000EB4001C1EBC0104FF6FF7101EAC000A6
:101240000449088010BD00000000002000127A0050
:1012500014000020160000200146114A12884A435B
:101260004FF0E0235A6100229A611A46126942F057
:1012700001021A6100BF4FF0E022106900F0010284
:101280001AB100F48032002AF5D04FF0E022126942
:1012900022F001024FF0E0231A6100229A617047A8
:1012A000160000200146114A12784A434FF0E0230D
:1012B0005A6100229A611A46126942F001021A61CB
:1012C00000BF4FF0E022106900F001021AB100F4F3
:1012D0008032002AF5D04FF0E022126922F001029C
:1012E0004FF0E0231A6100229A6170471400002039
:1012F00000BF054A128802F04002002AF9D0C2B2AB
:10130000014B1B1D1A807047003801401FB5FFF7C5
:1013100081FF4FF4A060FFF7BDFB4FF4E13000F018
:10132000E9F8FFF761FBFFF74BFBFFF7DDFBFFF78A
:10133000BBFB002211461E20FFF7B0FC012200215A
:101340003020FFF7ABFC022200214220FFF7A6FC71
:10135000032200215420FFF7A1FCFFF776F815E0E7
:101360003EA0FEF779FF4FF4FA70FFF775FF41A03A
:10137000FEF772FF4FF4FA70FFF76EFF4348006804
:1013800008B9012000E0002040490860FFF746F856
:101390000028E5D13EA0FEF75FFF3C224049002037
:1013A000FFF794F83C2269460020FFF752F869469F
:1013B0003CA0FEF751FF4FE03F48008800F400409A
:1013C00058B13E493EA0FEF747FFC8223B490020E6
:1013D000FFF77CF80020384908804FF400713D4841
:1013E000FFF784F9C8B90A20FFF736FF4FF4007100
:1013F0003848FFF77BF980B900BF4FF400713548DA
:10140000FFF774F90028F8D03C2269460020FFF766
:1014100020F8694623A0FEF71FFF4FF480612D4896
:10142000FFF764F9C0B90A20FFF716FF4FF4806197
:101430002848FFF75BF978B900BF4FF48061254871
:10144000FFF754F90028F8D0042223A10020FFF769
:101450003DF823A0FEF700FFAEE700003234433032
:101460003220436865636B204661696C6564210DB9
:101470000A000000506C6561736520436865636B0A
:10148000212020202020200D0A000000800123427E
:101490003234433032205265616479210D0A0000F4
:1014A000941500083234433032B5C4CAFDBEDDCED7
:1014B000AAA3BA25730D0A001C00002034010020E5
:1014C000B4AEBFDACAD5CAFDBEDDA3BA25730D0A14
:1014D00000000000001801404E4E4850000000007F
:1014E000D0B4C8EBCAFDBEDDA3BA4E4E48500D0ABB
:1014F0000000000010B586B00446012144F204004B
:10150000FFF73CFC4FF40070ADF8140003208DF899
:10151000160018208DF8170005A91C48FFF713F8CE
:101520004FF48060ADF8140004208DF8170005A971
:101530001648FFF708F825208DF8000003208DF8E5
:1015400001008DF8020001208DF803006846FFF7C6
:1015500069FA01940020ADF80800ADF80A00ADF872
:101560000C00ADF810000C20ADF80E0001A90848E1
:10157000FFF7DAFD012240F225510548FFF7AEFDE5
:1015800001210348FFF774FD06B010BD00080140BB
:101590000038014024434F4E4649472A6368616E34
:1015A00063653030312A5544502A3132332E31327E
:1015B000332E3132332E3132332A313030312A3129
:1015C0003338333833383433382A343039362A0014
:1015D000F015000800000020340100006C01000834
:1015E00084160008340100202C070000C801000800
:1015F0001184A24A04E0090102030406070809292C
:1016000016691A1009020406081060028C168888F0
:10161000FF88880511FE2222FE1504047E01000BBE
:10162000121F0808089F601F42827F1BFC84021162
:10163000000813445840FF40504C1F3F101F103FFC
:1016400004012AFF050111172424A4FEA32223224A
:10165000CC0214FF15080601FF2A013B061104FF06
:101660000202023809101010FF10900888C30B10F6
:101670008808C0000F1344827F01808040432C10F3
:0416800028468180F7
:0400000508000131BD
:00000001FF
