:020000040800F2
:10000000600800201D0200087D070008170700088F
:1000100079070008510500081315000800000000CA
:10002000000000000000000000000000791100083E
:100030005505000800000000E10E00088D120008C0
:1000400037020008370200083702000837020008AC
:10005000370200083702000837020008370200089C
:10006000370200083702000837020008370200088C
:10007000370200083702000837020008370200087C
:10008000370200083702000837020008370200086C
:10009000370200083702000837020008370200085C
:1000A000370200083702000837020008370200084C
:1000B000370200083702000837020008370200083C
:1000C000370200083702000837020008370200082C
:1000D00037020008F1120008370200083702000852
:1000E000370200083702000837020008370200080C
:1000F00037020008370200083702000837020008FC
:1001000037020008370200083702000837020008EB
:1001100037020008370200083702000837020008DB
:1001200037020008370200083702000837020008CB
:1001300000F002F800F062F80AA090E8000C824497
:100140008344AAF10107DA4501D100F057F8AFF274
:10015000090EBAE80F0013F0010F18BFFB1A43F0A5
:1001600001031847C0200000E02000000A444FF0BF
:10017000000C10F8013B13F0070408BF10F8014B06
:100180001D1108BF10F8015B641E05D010F8016B4B
:10019000641E01F8016BF9D113F0080F1EBF10F8AF
:1001A000014BAD1C0C1B09D16D1E58BF01F801CBD2
:1001B000FAD505E014F8016B01F8016B6D1EF9D555
:1001C0009142D6D37047000000230024002500266A
:1001D000103A28BF78C1FBD8520728BF30C148BFAA
:1001E0000B607047642900F0A580732900F04D81F1
:1001F000002070471FB51FBD10B510BD00F078F985
:100200001146FFF7F7FF01F01BFA00F096F903B46F
:10021000FFF7F2FF03BC01F094F9000009488047A2
:1002200009480047FEE7FEE7FEE7FEE7FEE7FEE7D8
:10023000FEE7FEE7FEE7FEE704480549054A064BF0
:100240007047000091120008310100086002002090
:100250006008002060040020600400207047000057
:100260000FB4044910B503AA029800F013F910BCAA
:100270005DF814FB180000202DE9F0410E460446FD
:10028000002020622046E168884730B3252805D049
:10029000D4E901219047206A401CF2E7E16820463A
:1002A00000278847050018D0A5F14100192802D879
:1002B00020354FF400673246294620462760FFF775
:1002C00091FF40B1012804D0F61D26F0070608363C
:1002D000D8E7361DD6E72846DAE7206ABDE8F08180
:1002E00070B50C460546012A05D02878800600D551
:1002F000EA69002302E0012305E05B1C934202D27D
:10030000E05C0028F9D1A869E618C01AA861286A3B
:10031000184428622846AFF3008004E0D5E90121A3
:1003200014F8010B9047B442F8D32846AFF300808D
:1003300070BD00002DE9F0410646002410687529C3
:10034000314616A510D0AFF30080002802DA4042F3
:1003500013A507E031688A0701D512A502E0490715
:1003600004D511A5012401E0AFF3008000210A2289
:1003700006F1240709E0B0FBF2FCB0FBF2F302FB4C
:100380001C00303078541846491C0028F3D123460D
:100390002A463046BDE8F04100F00CB800000000ED
:1003A0002D0000002B000000200000007047704767
:1003B000704770472DE9F0470D469946924604462E
:1003C00000F124080168880604D5E06921F01001D5
:1003D000216000E00120A84201DD471B00E000276A
:1003E000A1697A1902EB0900081AA0612078C006F9
:1003F00002D42046AFF30080002608E0D4E90121B2
:100400001AF806009047206A401C761C20624E4570
:10041000F4DB2078C0060AD52046AFF3008006E062
:10042000D4E9012130209047206A401C2062381E08
:10043000A7F10107F4DC07E0D4E9012118F8050071
:100440009047206A401C2062281EA5F10105F3DCBC
:100450002046AFF300802078000602D50220BDE8D8
:10046000F0870120FBE710B5436913B1AFF30080BB
:1004700001E0FFF735FF012010BD127800F12401E3
:100480000A7000224A700122EDE711684FF0FF3236
:10049000E9E70000074B70B50D467B4400F011F80A
:1004A0000446284600F020F810B14FF0FF3070BD30
:1004B000204670BD8711000001694A1C026108785E
:1004C000704700B58FB0CDE9013100210591054994
:1004D0007944CDE9031011466846FFF7CDFE0FB011
:1004E00000BD0000E5FFFFFF007B00F080007047CB
:1004F000754600F029F8AE4605006946534620F0DF
:100500000700854618B020B5FFF796FEBDE82040ED
:100510004FF000064FF000074FF000084FF0000BBF
:1005200021F00701AC46ACE8C009ACE8C009ACE872
:10053000C009ACE8C0098D4670470446AFF300809F
:100540002046FFF764FE000000487047FC010020D1
:1005500000BFFEE770472DE9F04102460025002666
:10056000002000230024002791F803C00CF00F05A1
:1005700091F803C00CF0100CBCF1000F03D091F8FF
:1005800002C04CEA050591F800C0BCF1000F31D063
:10059000146800202BE04FF0010C0CFA00F3B1F8C6
:1005A00000C00CEA03069E4220D183004FF00F0CDE
:1005B0000CFA03F7BC4305FA03FC4CEA040491F877
:1005C00003C0BCF1280F06D14FF0010C0CFA00FC5F
:1005D000C2F814C00AE091F803C0BCF1480F05D17D
:1005E0004FF0010C0CFA00FCC2F810C0401C0828A7
:1005F000D1D31460B1F800C0BCF1FF0F34DD5468F2
:1006000000202EE000F1080C4FF0010808FA0CF36E
:10061000B1F800C00CEA03069E4221D183004FF0DE
:100620000F0C0CFA03F7BC4305FA03FC4CEA040474
:1006300091F803C0BCF1280F05D100F1080C08FAAD
:100640000CF8C2F8148091F803C0BCF1480F07D130
:1006500000F1080C4FF0010808FA0CF8C2F81080FD
:10066000401C0828CED35460BDE8F081F0B50A469E
:10067000002300240021002500F00046B6F1004FC1
:1006800002D11D4EF16901E01B4E7168C0F30345B4
:1006900083B200F44016B6F5401F08D121F0706116
:1006A000154E766826F07066134F7E6012E000F4F7
:1006B0008016B6F5801F06D1032606FA05F4A1437D
:1006C00041F0706106E0460D360103FA06F6B143CB
:1006D00041F0706122B1460D360103FA06F631434E
:1006E00000F00046B6F1004F02D1034EF16101E087
:1006F000014E7160F0BD0000000001400246002084
:1007000093680B400BB1012000E00020704741616D
:1007100070470161704700BFFEE7000008B5012186
:10072000402000F0EFFB4FF4F050ADF800004820FF
:100730008DF8030069460248FFF70DFF08BD000071
:100740000018014008B50121402000F0DBFB0F201C
:10075000ADF8000010208DF8030003208DF8020092
:1007600069460448FFF7F7FE0F210248FFF7D1FF63
:1007700008BD00000018014000BFFEE77047000000
:100780001CB511A103C9CDE90001082000F0A8FCA7
:1007900005226946302000F06FF9052269461020D5
:1007A00000F0B0F8002406E01DF80400A52800D0F1
:1007B00003E0601CC4B2052CF6DB00BF052C01D0A1
:1007C00001201CBD0020FCE7A5A5A5A5A5000000F3
:1007D00000B587B00121282000F094FB4FF4805031
:1007E000ADF8180010208DF81B0003208DF81A00BA
:1007F00006A92948FFF7AFFE4FF480512648FFF7BE
:1008000088FF4FF48850ADF8180006A92348FFF779
:10081000A2FE4FF40070ADF8180028208DF81B00E0
:1008200006A91E48FFF797FE4FF498511B48FFF7A3
:100830006EFF00F0E1FB0021194800F065FC00208C
:10084000ADF804004FF48270ADF806000020ADF85A
:100850000800ADF80A00ADF80C004FF40070ADF8D8
:100860000E001820ADF810000020ADF8120007208F
:10087000ADF8140001A90A4800F060FC0121084805
:1008800000F042FC00200749086001200649C1F839
:10089000A00107B000BD0000000C014000140140A1
:1008A00000380040B08121420080224210B5002073
:1008B00011490860052211492A2000F0DDF80121C4
:1008C000212000F0F7F80121222000F0F3F8282180
:1008D000252000F0EFF82021312000F0EBF80F2167
:1008E000262000F0E7F80F21202000F0E3F8012097
:1008F0000349C1F8B00110BDB08121421D2200089A
:10090000008021422DE9F04107460D4616460020A1
:100910000A490860384600F0B9FB8046002405E02B
:10092000FF2000F0B3FB2855601CC4B2B442F7DBD3
:100930000120024908604046BDE8F081A0812242C2
:1009400070B50446002007490860204600F09EFB71
:10095000FF2000F09BFB054601200349C1F8A001E0
:10096000284670BDA08122420080224270B5044614
:10097000102000F0B5FB0720FFF7E2FF05462946EF
:10098000272000F097F805F0400050B120222146C2
:100990006120FFF7B7FFFF21E22000F08BF8002075
:1009A00070BD0120FCE7000010B50020144908606C
:1009B00005221449302000F05FF8052212492A2050
:1009C00000F05AF80121212000F074F801212220C2
:1009D00000F070F81A21242000F06CF8282125205E
:1009E00000F068F80F21262000F064F80E21202086
:1009F00000F060F801200549C1F8B00110BD000009
:100A0000B0812142182200081D22000800802142E6
:100A100070B50546102000F063FB00201349086004
:100A200020222946A02000F027F801201049C1F813
:100A3000B00100BF0F4800680028FBD10720FFF776
:100A40007FFF04462146272000F034F804F0100010
:100A500028B1FF21E12000F02DF8102070BD04F036
:100A6000200008B12020F9E7FF20F7E7B0812142FC
:100A700000802142248122422DE9F04107460C46A4
:100A8000154600200A490860384600F0FFFA804603
:100A9000002605E014F8010B00F0F8FA701CC6B24D
:100AA000AE42F7DB0120024908604046BDE8F08114
:100AB000A081224270B505460C4600200749086017
:100AC000284600F0E3FA0646204600F0DFFA01204F
:100AD0000349C1F8A001304670BD0000A081224248
:100AE0000080224270B5002100230F22C47804B395
:100AF000154C246804F4E064C4F5E064210AC1F1F3
:100B00000403CA40447804FA03F184781440214372
:100B100009010E4C0678A155047804F01F05012444
:100B2000AC4005786D11AD0005F1E025C5F8004138
:100B300009E0047804F01F050124AC40044D067858
:100B4000761145F8264070BD0CED00E000E400E0B1
:100B500080E100E002490143024A11607047000051
:100B60000000FA050CED00E070B5002419E004F176
:100B7000B001C8B2002100F079F90021084600F068
:100B800075F90021102000F071F9002505E0012120
:100B9000002000F06BF9681CC5B2802DF7DB601CEB
:100BA000C4B2082CE3DB70BD08B50121282000F099
:100BB000A9F90121092000F0A5F901215848FFF702
:100BC00055FDE020ADF8000010208DF80300032053
:100BD0008DF8020069465348FFF7BDFCE0215148FB
:100BE000FFF797FD3820ADF8000010208DF80300C6
:100BF00003208DF8020069464B48FFF7ACFC282122
:100C00004948FFF786FD80214648FFF782FD6420B2
:100C100000F0BCFC80214348FFF779FD642000F020
:100C2000B5FC80213F48FFF774FD0021AE2000F0A5
:100C30001DF90021084600F019F90021102000F0EC
:100C400015F90021402000F011F90021812000F069
:100C50000DF90021CF2000F009F90021A12000F0BA
:100C600005F90021C82000F001F90021A62000F0BC
:100C7000FDF80021A82000F0F9F800213F2000F045
:100C8000F5F80021D32000F0F1F80021084600F02B
:100C9000EDF80021D52000F0E9F80021802000F0D7
:100CA000E5F80021D92000F0E1F80021F12000F062
:100CB000DDF80021DA2000F0D9F80021122000F040
:100CC000D5F80021DB2000F0D1F80021402000F011
:100CD000CDF80021202000F0C9F80021022000F00A
:100CE000C5F800218D2000F0C1F80021142000F08B
:100CF000BDF80021A42000F0B9F80021A62000F0E2
:100D0000B5F80021AF2000F0B1F80021AF2000F0CD
:100D1000ADF8FFF729FF0021084600F007F808BDED
:100D20000002300000140140000C014070B5044680
:100D30000D4605F1B001C8B2002100F097F810216E
:100D400041EA1410002100F091F804F00F0141F085
:100D50000100002100F08AF870BD00002DE9F0418B
:100D600080460E461546002731464046FFF7DEFF17
:100D700000240AE0124A02EB8511085D012100F00F
:100D800075F8781CC7B2601CC4B2102CF2DB701C62
:100D9000C1B24046FFF7CAFF00240CE06900491CBD
:100DA000074A02EB4111085D012100F05FF8781C51
:100DB000C7B2601CC4B2102CF0DBBDE8F0810000AB
:100DC000320000202DE9F04107460E4690460025EE
:100DD0000024A8F12000C5B27F2F02DD0027B01C3F
:100DE000C6B231463846FFF7A1FF002408E004EB05
:100DF00005110F4A505C012100F038F8601CC4B2A4
:100E0000082CF4DB701CC1B23846FFF78FFF0024BA
:100E100009E004EB05110831054A505C012100F09E
:100E200025F8601CC4B2082CF3DBBDE8F08100009B
:100E3000281C00082DE9F04104460F4615460026FF
:100E40000EE0AA5D39462046FFF7BCFF04F108001A
:100E5000C4B2782C02DD0024B81CC7B2701CC6B224
:100E6000A85D0028EDD1BDE8F081000070B5044612
:100E70000E4626B140211848FFF74BFC03E0402105
:100E80001548FFF744FC20211348FFF740FC0025DC
:100E900017E008211148FFF73AFC04F0800020B168
:100EA00020210E48FFF735FC03E020210B48FFF717
:100EB0002EFC08210948FFF72CFC6006040E681C74
:100EC000C5B2082DE5DB20210348FFF722FC4021B5
:100ED0000148FFF71EFC70BD00140140000C0140EA
:100EE0007047000029B1064AD2690243044BDA6117
:100EF00004E0034AD2698243014BDA617047000083
:100F00000010024029B1064A92690243044B9A61DB
:100F100004E0034A92698243014B9A6170470000E2
:100F20000010024030B500210022002400232D4D86
:100F30006D6805F00C0121B1042905D0082923D1E1
:100F400005E0294D056022E0274D05601FE0254D95
:100F50006D6805F47012234D6D6805F48034022528
:100F600005EB92421CB9214D554305600BE01D4D28
:100F70006D6805F400351DB11C4D5543056002E058
:100F8000194D5543056002E0174D056000BF00BFD5
:100F9000144D6D6805F0F0010909154D6B5C05688D
:100FA000DD4045600F4D6D6805F4E061090A104DA4
:100FB0006B5C4568DD4085600A4D6D6805F46051E5
:100FC000C90A0B4D6B5C4568DD40C560054D6D6819
:100FD00005F44041890B074D6B5CC568B5FBF3F523
:100FE000056130BD0010024000127A0000093D008A
:100FF0001E0000202E00002000B587B0012108202F
:10100000FFF780FF01218803FFF76CFF4FF460407A
:10101000ADF8180018208DF81B0003208DF81A0079
:1010200006A91848FFF797FA4FF460411548FFF7F3
:1010300070FB0020ADF804004FF48270ADF806009C
:101040000020ADF808000220ADF80A000120ADF83C
:101050000C004002ADF80E003820ADF81000002062
:10106000ADF812000720ADF8140001A9064800F001
:1010700065F80121044800F047F8FF2000F006F869
:1010800007B000BD000C01400038004070B50546B7
:10109000002405E0601CC4B2C82C01DD002070BD36
:1010A00002210E4800F03CF80028F3D029460B48F6
:1010B00000F042F8002405E0601CC4B2C82C01DD39
:1010C0000020ECE70121054800F02AF80028F3D0C1
:1010D000024800F02EF8C0B2E1E7000000380040FE
:1010E00010B50446074800884FF6C7710840054907
:1010F000088008460088204308800121014800F04C
:1011000003F810BD0038004021B1028842F04002CF
:10111000028004E002884FF6BF731A4002807047D5
:101120000246002013890B400BB1012000E0002093
:1011300070470146888970478181704710B5002249
:10114000028802F441520B884C8823438C88234345
:10115000CC8823430C8923434C8923438C89234324
:10116000CC8923431A430280838B4FF2FF742340C0
:1011700083830B8A038210BD704710B500F002F81C
:1011800010BD00000CB500200190009033480068AD
:1011900040F480303149086000BF3048006800F4F6
:1011A000003000900198401C0190009818B90198F7
:1011B000B0F5A06FF1D12948006800F4003010B1FB
:1011C0000120009001E0002000900098012843D108
:1011D0002348006840F01000214908600846006874
:1011E00020F0030008600846006840F00200086034
:1011F0001A484068194948600846406848600846EF
:10120000406840F4806048600846406820F47C10E4
:1012100048600846406840F4E810486008460068A6
:1012200040F08070086000BF0C48006800F000705B
:101230000028F9D00948406820F0030007494860B9
:101240000846406840F00200486000BF034840681C
:1012500000F00C000828F9D10CBD0000001002407D
:1012600000200240042808D14FF0E021096941F034
:1012700004014FF0E022116107E04FF0E02109691D
:1012800021F004014FF0E022116170477047000027
:1012900010B51348006840F0010011490860084685
:1012A0004068104908400E494860084600680E49E9
:1012B00008400B4908600846006820F48020086058
:1012C0000846406820F4FE0048604FF41F00886024
:1012D000FFF753FF4FF000600449086010BD0000A5
:1012E000001002400000FFF8FFFFF6FE08ED00E0EE
:1012F00010B540F225511D4800F04AF810B31B48C4
:1013000000F002F9C4B21A48008800F40040C8B9DD
:101310001748008800F4804060B10A2C03D00020F8
:101320001349088020E01248008840F4004010492A
:10133000088019E00D2C06D10D48008840F480404B
:101340000B49088010E00A480088C0F30D000949E5
:101350000C5407480088401C05490880084600884E
:10136000C72801DD0020088010BD000000380140C2
:101370001C0000203401002021B1828942F4005277
:10138000828104E082894DF6FF731A4082817047A2
:1013900070B50246002400230025002040F66A169E
:1013A000B14200D100BFC1F3421501F01F03012675
:1013B00006FA03F3012D02D19689334006E0022D8F
:1013C00002D1168A334001E0968A33400C1201267E
:1013D00006FA04F41688344013B10CB1012000E081
:1013E000002070BDF0B50346002400260025002033
:1013F00040F66A17B94200D100BF1846C1F3421443
:1014000001F01F06012707FA06F5012C01D10C3067
:1014100004E0022C01D1103000E014301AB107684A
:101420002F43076002E00768AF430760F0BD00008C
:101430002DE9F04786B005460E460024A24600BFBF
:10144000A1460027B08900B100BF2F462C8A4CF678
:10145000FF700440F08804432C82AC894EF6F310F0
:101460000440B08831890843718908430443AC8142
:10147000AC8A4FF6FF400440B0890443AC8201A817
:10148000FFF750FD1F48874202D1DDF810A001E0B0
:10149000DDF80CA0A88900F4004040B10AEBCA00B6
:1014A00000EB0A1031684900B0FBF1F807E00AEBE5
:1014B000CA0000EB0A1031688900B0FBF1F8642023
:1014C000B8FBF0F004012009642101FB1089A88910
:1014D00000F4004040B1322000EBC900B0FBF1F055
:1014E00000F00700044308E0322000EB09106421FB
:1014F000B0FBF1F000F00F0004432C8106B0BDE812
:10150000F08700000038014001468888C0F30800D9
:10151000704700BFFEE710B5002211461E20FFF7FE
:101520001DFC012200213020FFF718FC02220021BF
:101530004220FFF713FC032200215420FFF70EFC8A
:1015400010BD00BF7047000010B56FF00400FFF73A
:1015500089FE0A4800680A49B0FBF1F009490870A1
:101560000846007800EB4001C1EBC0104FF6FF7158
:1015700001EAC0000449088010BD000000000020FE
:1015800000127A0014000020160000200146114AC3
:1015900012884A434FF0E0235A6100229A611A46AA
:1015A000126942F001021A6100BF4FF0E022106997
:1015B00000F001021AB100F48032002AF5D04FF099
:1015C000E022126922F001024FF0E0231A610022AA
:1015D0009A617047160000200146114A12784A436A
:1015E0004FF0E0235A6100229A611A46126942F0D4
:1015F00001021A6100BF4FF0E022106900F0010201
:101600001AB100F48032002AF5D04FF0E0221269BE
:1016100022F001024FF0E0231A6100229A61704724
:101620001400002000BF054A128802F04002002A80
:10163000F9D0C2B2014B1B1D1A807047003801401F
:101640008AB00024FFF780FF4FF4A060FFF782FA12
:101650004FF4E13000F084F9FFF774F8FFF75EF81B
:10166000FFF7A2FAFFF780FAFFF755FFFFF7B0F890
:101670000DE07BA0FEF7F4FD7EA202210A20FFF719
:10168000D9FBC820FFF782FFC820FFF77FFFFFF7D5
:1016900077F80028EDD17BA0FEF7E2FD7DA20221C4
:1016A0000A20FFF7C7FBDAE048E04FF400717C48FE
:1016B000FFF724F8B0B90A20FFF768FF4FF4007174
:1016C0007748FFF71BF868B900BF4FF40071744802
:1016D000FFF714F80028F8D00025294671A0FEF77E
:1016E000BFFD2CE04FF480616D48FFF707F8B0B9FB
:1016F0000A20FFF74BFF4FF480616948FEF7FEFFB9
:1017000068B900BF4FF480616548FEF7F7FF002815
:10171000F8D00125294663A0FEF7A2FD0FE0601C6A
:1017200084B2642C04D162A204210A20FFF782FB58
:10173000C82C00D100240520FFF728FFB5E700BF23
:10174000002D3AD1FFF710FAFFF7E5FE5FA0FEF794
:1017500087FD63A202210020FFF76CFB64A0FEF767
:101760007FFD63A204210620FFF764FBFFF79EF8CC
:1017700022E001A8FFF7FAF860B900208DF82400F4
:1017800001A95FA0FEF76CFD01AA04213C20FFF730
:1017900051FB02E06420FFF71FFF601C84B242F29D
:1017A0001070844208D100245748006808B901200D
:1017B00000E0002054490860DBE7FFF7D5F9FFF7A8
:1017C000AAFE52A0FEF74CFD55A202210020FFF711
:1017D00031FBFFF7E9F8202540E001A8FFF718F9F1
:1017E000202827D153A0FEF73BFD52A2042106205A
:1017F000FFF720FB01A942A0FEF732FD01AA042158
:101800003C20FFF717FB2E46002408E0701CC6B2F0
:101810007E2E00DD202601A80655601C84B2202CF7
:10182000F4DB681CC5B27E2D00DD202500208DF87C
:10183000240007E043A0FEF713FD46A20421062082
:10184000FFF7F8FA3048006808B9012000E00020EE
:101850002D49086040F2DC50FFF798FEBDE723E712
:101860004E524632344C3031204572726F720D0A3E
:10187000000000004E524632344C30312045727226
:101880006F7200004E524632344C3031204F4B0DB7
:101890000A0000004E524632344C3031204F4B008B
:1018A000001801406D6F64653D25640D0A0000005D
:1018B0004B4559303A52585F4D6F646520204B4577
:1018C00059313A54585F4D6F646500004E524632AC
:1018D000344C30312052585F4D6F64650D0A000062
:1018E0004E524632344C303152585F4D6F64650071
:1018F000526563656976656420444154413A00004D
:1019000025730D0A00000000800123424E5246322A
:10191000344C30312054585F4D6F64650D0A00001F
:101920004E524632344C30312054585F4D6F64650E
:101930000000000053656E64656420444154413AE0
:101940000000000053656E64204661696C65642088
:101950000D0A000053656E64204661696C65640081
:1019600010B586B00446012144F20400FFF7CAFA1C
:101970004FF40070ADF8140003208DF81600182005
:101980008DF8170005A91C48FEF7E5FD4FF48060AF
:10199000ADF8140004208DF8170005A91648FEF7CD
:1019A000DAFD25208DF8000003208DF801008DF868
:1019B000020001208DF803006846FFF793F80194B8
:1019C0000020ADF80800ADF80A00ADF80C00ADF845
:1019D00010000C20ADF80E0001A90848FFF728FD03
:1019E000012240F225510548FFF7FCFC0121034884
:1019F000FFF7C2FC06B010BD0008014000380140EE
:101A00000000000000000000002F000000000700A0
:101A1000070000147F147F1400242A7F2A1200621A
:101A200064081323003649552250000005030000C6
:101A300000001C224100000041221C000014083E4E
:101A400008140008083E0808000000A06000000814
:101A50000808080800006060000000201008040268
:101A6000003E5149453E0000427F40000042615126
:101A70004946002141454B31001814127F100027C0
:101A800045454539003C4A49493000017109050383
:101A900000364949493600064949291E00003636B4
:101AA0000000000056360000000814224100001417
:101AB00014141414000041221408000201510906F4
:101AC00000324959513E007C1211127C007F494975
:101AD0004936003E41414122007F4141221C007FA6
:101AE00049494941007F09090901003E4149497AB4
:101AF000007F0808087F0000417F4100002040412E
:101B00003F01007F08142241007F40404040007F99
:101B1000020C027F007F0408107F003E4141413EDD
:101B2000007F09090906003E4151215E007F091925
:101B300029460046494949310001017F0101003F22
:101B40004040403F001F2040201F003F4038403FA2
:101B50000063140814630007087008070061514906
:101B6000454300007F41410000552A552A55000099
:101B700041417F0000040201020400404040404017
:101B8000000001020400002054545478007F4844AF
:101B9000443800384444442000384444487F0038E6
:101BA0005454541800087E0901020018A4A4A47C0F
:101BB000007F080404780000447D400000408084D9
:101BC0007D00007F102844000000417F4000007C21
:101BD00004180478007C080404780038444444382D
:101BE00000FC242424180018242418FC007C080479
:101BF000040800485454542000043F444020003C52
:101C00004040207C001C2040201C003C4030403CD8
:101C1000004428102844001CA0A0A07C0044645468
:101C20004C441414141414140000000000000000AC
:101C30000000000000000000000000F800000000AC
:101C4000000000333000000000100C06100C0600ED
:101C5000000000000000000040C07840C078400054
:101C6000043F04043F040400007088FC08300000B6
:101C7000001820FF211E0000F008F000E01800000E
:101C800000211C031E211E0000F0088870000000C7
:101C90001E2123241927211010160E000000000019
:101CA0000000000000000000000000E01804020036
:101CB000000000071820400000020418E0000000A7
:101CC0000040201807000000404080F080404000A5
:101CD0000202010F01020200000000F000000000FB
:101CE0000101011F010101000000000000000000CF
:101CF00080B0700000000000000000000000000044
:101D000000010101010101010000000000000000CC
:101D10000030300000000000000000008060180467
:101D2000006018060100000000E010080810E00044
:101D3000000F102020100F00001010F8000000000D
:101D40000020203F20200000007008080888700054
:101D500000302824222130000030088888483000D4
:101D60000018202020110E000000C02010F80000F4
:101D700000070424243F240000F80888880808008D
:101D80000019212020110E0000E0108888180000A2
:101D9000000F112020110E0000380808C838080074
:101DA0000000003F000000000070880808887000F4
:101DB000001C222121221C0000E010080810E00075
:101DC0000000312222110F00000000C0C0000000FE
:101DD0000000003030000000000000800000000023
:101DE000000080600000000000008040201008001B
:101DF00000010204081020004040404040404000E4
:101E000004040404040404000008102040800000BE
:101E10000020100804020100007048080808F000C3
:101E20000000003036010000C030C828E810E00093
:101E30000718272423140B000000C038E00000001E
:101E4000203C23020227382008F888888870000088
:101E5000203F202020110E00C0300808080838005C
:101E6000071820202010080008F808080810E000D3
:101E7000203F202020100F0008F88888E808100074
:101E8000203F20202320180008F88888E808100048
:101E9000203F200003000000C03008080838000080
:101EA00007182020221E020008F808000008F80881
:101EB000203F210101213F20000808F80808000008
:101EC0000020203F2020000000000808F80808003B
:101ED000C08080807F00000008F888C028180800B3
:101EE000203F20012638200008F8080000000000EC
:101EF000203F20202020300008F8F800F8F80800E3
:101F0000203F003F003F200008F830C00008F808DC
:101F1000203F200007183F00E01008080810E000EC
:101F20000F10202020100F0008F808080808F00003
:101F3000203F210101010000E01008080810E00026
:101F40000F18242438504F0008F8888888887000BB
:101F5000203F2000030C302000708808080838005B
:101F60000038202121221C00180808F80808180051
:101F70000000203F2000000008F808000008F808D2
:101F8000001F202020201F000878880000C8380883
:101F9000000007380E010000F80800F80008F800FB
:101FA000033C0700073C0300081868808068180895
:101FB00020302C03032C30200838C800C838080013
:101FC0000000203F2000000010080808C838080062
:101FD0002038262120201800000000FE0202020006
:101FE0000000007F40404000000C30C000000000B6
:101FF000000000010638C00000020202FE000000DE
:10200000004040407F000000000004020202040083
:1020100000000000000000000000000000000000C0
:1020200080808080808080800002020400000000A8
:1020300000000000000000000000808080800000A0
:102040000019242222223F2008F80080800000008E
:10205000003F112020110E00000000808080000051
:10206000000E112020201100000000808088F80060
:10207000000E112020103F20000080808080000092
:10208000001F222222221300008080F088888818F6
:102090000020203F20200000000080808080800001
:1020A000006B94949493600008F800808080000096
:1020B000203F210000203F20008098980000000071
:1020C0000020203F202000000000008098980000A1
:1020D00000C08080807F000008F8000080808000C1
:1020E000203F24022D302000000808F800000000E6
:1020F0000020203F202000008080808080808000A1
:10210000203F20003F20003F808000808080000032
:10211000203F210000203F200000808080800000C0
:10212000001F202020201F008080008080000000F1
:1021300080FFA12020110E00000000808080800020
:10214000000E112020A0FF80808080008080800011
:1021500020203F212000010000008080808080003E
:102160000033242424241900008080E080800000B3
:102170000000001F20200000808000000080800000
:10218000001F202020103F20808080000080808061
:1021900000010E30080601008080008000808080F1
:1021A0000F300C030C300F00008080008080800016
:1021B0000020312E0E312000808080000080808041
:1021C00080818E70180601000080808080808000F1
:1021D0000021302C2221300000000000807C02020F
:1021E00000000000003F404000000000FF00000031
:1021F00000000000FF0000000002027C80000000E0
:102200000040403F000000000006010102020404FB
:10221000000000000000000034431010013443109F
:1022200010010000442200080000002034010000DA
:102230006C010008D8220008340100202C0700009F
:10224000C80100081184A24A04E00901020304063F
:102250000708092916691A10090204060810600205
:102260008C168888FF88880511FE2222FE1504043A
:102270007E01000B121F0808089F601F42827F1B0F
:10228000FC840211000813445840FF40504C1F3F8B
:10229000101F103F04012AFF050111172424A4FE7A
:1022A000A3222322CC0214FF15080601FF2A013BBA
:1022B000061104FF0202023809101010FF109008E6
:1022C00088C30B108808C0000F1344827F018080F0
:0822D00040432C1028468180D8
:0400000508000131BD
:00000001FF
